:100000000C944A110C9472110C9472110C9472118C
:100010000C9472110C9472110C9472110C94721154
:100020000C9472110C9472110C9472110C94721144
:100030000C9472110C9472110C9472110C94721134
:100040000C94E9200C9472110C9459210C943321D6
:100050000C9472110C9472110C9472110C94721114
:100060000C948B210C947211000000000000000021
:10007000002F000000000700070000147F147F1409
:1000800000242A7F2A12002313086462003649558F
:10009000225000000503000000001C224100000067
:1000A00041221C000014083E08140008083E0808FD
:1000B000000000A060000008080808080000606058
:1000C0000000002010080402003E5149453E000097
:1000D000427F4000004261514946002141454B3179
:1000E000001814127F10002745454539003C4A4945
:1000F00049300001710905030036494949360006B7
:100100004949291E0000363600000000563600001E
:100110000008142241000014141414140000412299
:10012000140800020151090600324959513E007C71
:100130001211127C007F49494936003E414141225B
:10014000007F4141221C007F49494941007F090944
:100150000901003E4149497A007F0808087F0000F4
:10016000417F4100002040413F01007F08142241AF
:10017000007F40404040007F020C027F007F040867
:10018000107F003E4141413E007F09090906003EC3
:100190004151215E007F09192946004649494931EC
:1001A0000001017F0101003F4040403F001F20400F
:1001B000201F003F4038403F0063140814630007CD
:1001C0000870080700615149454300007F41410024
:1001D000000204081020000041417F0000040201D9
:1001E00002040040404040400000010204000020A2
:1001F00054545478007F48444438003844444420E0
:1002000000384444487F00385454541800087E098C
:1002100001020018A4A4A47C007F08040478000054
:10022000447D4000004080847D00007F1028440011
:100230000000417F4000007C04180478007C080422
:10024000047800384444443800FC2424241800185E
:10025000242418FC007C080404080048545454204A
:1002600000043F444020003C4040207C001C2040D3
:10027000201C003C4030403C004428102844001C16
:10028000A0A0A07C004464544C44000836414100C6
:100290000000007F0000000041413608000804080B
:1002A0001008463A002053743A006175746F0020BC
:1002B0004167633A002042573A002056633A0020D3
:1002C000563A0020522F534E3A0020525353493A87
:1002D000002042464F3A00200020004C4F434B453F
:1002E000442A003E002A0000008000730176017855
:1002F000017A017C017F0181018401860188018AE4
:10030000018C018E01900192019401510268028AD0
:10031000029502F502650368039303AE03B103B4CB
:1003200003D903E203E703EA03EC03EF03F203F567
:1003300003F703FB03FE03100427042D04320434E7
:1003400004360439043C0440044304450449044B86
:10035000044E0450040003740BD484606FAE6CF937
:10036000BB84A265B14BF672011A21E85AD8D604B3
:10037000735E2C226EC4E9B58B819A1EE487C99EF8
:100380007B17526DADE3E58B04A72E996A32AA99CB
:1003900097CCA65B157956480163B1DF5427065701
:1003A00006538CA627AA66890318517EFB67D3CE15
:1003B000DD3FFD3D1F478401F3856EF83B792B0C33
:1003C000904B67467D5488FDD612E5E748F20EDB78
:1003D000994D71A54068D9C95939E475201CE9B116
:1003E000F5013C19BB60F7FA6B1E689F19B6ED1456
:1003F0000F56BCC134CB009D43D40FF3629C9DF7D4
:100400008B9D533A8D2F3DDE3D3831039BC7C1593B
:10041000E9D175888D365886704E5B9ED0DBCBF760
:10042000EA1FDBA53BB3BD6BBCF37065D5170F644A
:10043000152420D5B87B0D272985881F5822574FB2
:1004400009C04DD6E4C6B53A373327BB6A146903F1
:100450001BEDA8C343E8EADE410625C5C83CBF3210
:10046000B2A7DD22C2E9CA84F2C0267C7801F7D5A2
:10047000C60533E4C278EC1BFDD2507D1129579993
:10048000B0F1556674B45823A06F2ED89B08B33EC4
:1004900053CF5ECC7ADF4EED42166A9188431B1D26
:1004A000845C52216658243671C56A0D2C869A23C5
:1004B0009DE03543C97F41BD8299ED7A26B2D3A62E
:1004C000CE4F00E687E3D7682886F7CED2B3D31B9A
:1004D0000402B978B3ADE03C53A68A4A22BE1FCECF
:1004E000B176F22F81A8C17872B0156519E332A7F1
:1004F0004D0CD300B9C327BE744DD1E10C36DD23BA
:10050000FBA722D344CAB3081BB40D4BDF1AA69035
:1005100032925C1AA7CD852E351172F821357D3FB8
:10052000DB298D30B34F451477CF992FA39081B03D
:10053000AEE845E63AA9A262B7DBBE2539A5FCEADA
:10054000C5BC3AEC90AEA6FB12AAC76222AFA98442
:10055000B964B8FB8DC11CC3D0876D5CB4FE3FA4E9
:10056000B8D889F40159BB04A543441ACB4130F7EC
:100570005B9AEE28F44C7199CA4B7F2A13F04B54C6
:10058000B3FC90EDBE483FF15E0DA1BB1E591615A0
:10059000F04B504C96861BA9CCC2694E1003F0E973
:1005A00053E5E2BB45E28DAE407108864D08F496F6
:1005B00090585340A58B5B3CAD47B5D7E26A1378A2
:1005C000D4DCC9EC0E93F0C01D953676A45385C9D2
:1005D000ACE4718DAF6861209DFF45356E04D8276E
:1005E00032C3DAEEA26604B72106527F398FFDEEE0
:1005F0009074B64FB6240E1248F0B230F2A54C916A
:1006000052E3C6487B3896239ED71B95153AC98B73
:100610006F637D1DC9EA96E601D785C0EA3DCAD35E
:10062000B7FB07543A00313D74E4125BA238335BE8
:10063000BF1DDC4EE8851077ABEA6579B0AA306162
:10064000C6F63BCC95FC837F8C7BB55205EBF7213E
:10065000DE89B66DEE317713AA935596086E1C822B
:10066000B57E95B994DD68425C3A00C37B6F606AE1
:100670002C07D76C82FBB2812569D6720AD2E8506A
:100680000588491B6372996CE37AAEB01B9ED42532
:1006900054258A901797DF39B87CEAF082DD25D29D
:1006A000ADE7F6362384A9C96A53F4822C1DEA0605
:1006B000C64F705437802A6B63DBCC86E68C7F276D
:1006C0008C7254739E1BD64CFA058280D7B7119852
:1006D000000000000000069869151CFC86877484E1
:1006E0005BD40FDBD727C54AB28F297A4A230AB8D1
:1006F00007D03470818E53EF43163FA8A79E5A77D8
:10070000C091B789155248C0B762ABE1746410AAB2
:10071000096B9774217935A19725FC78C1EC6E8718
:100720007740871A74828156DDEC37ADAF0331AC68
:10073000478574C02A459DF4120CF986B04A16D834
:10074000116C46C44A67988B1B42C2BEBB0E4884DC
:10075000F708A6C38F8E8DABC29B5D5C6028578F58
:100760000EAD2EC15E95299AF48A27D441BB4AACBE
:100770005DB29326FD87813F2735A6422C1538AD03
:10078000F8026F94DA08EE19D890FA89C3AD89FEA1
:10079000C60246811D0C8D782FEED3ED6C7B9549FA
:1007A0005687F4E263DA39CE681618ED98EE86F3D0
:1007B000B3C1121A519B571D199E987ED2FD3D2B35
:1007C00059154674577914817189D922DD9210D94F
:1007D0008991DF67006E53AFDAB528301E47E6B760
:1007E000052D22CF7F6ACD88906B8C16368807A1A5
:1007F000B7AFF331C4DB768B969EF017A73F8478B2
:1008000091A8CD3F8FA5DD5214F9395D0B568E1C92
:100810005A5B89EE809E33BDB1451542345978202C
:10082000FC2DDBC92E0F3526CF239B3E1D9F0F26A7
:100830000EB7B54EACA286D5DA36045A73466A882E
:10084000C52AA083E88B5F3CAF6A444E759B8F93AB
:10085000373538BD029A1D8429642597E07C2AB675
:10086000CBC166513CBC3BF3552BB7BD81ECF34982
:10087000D5F803E0BDC60CEEC01908FB4F8C9408F8
:100880000EA53037F0B818937300BB5252B4980DD0
:100890004B45B9890A34E91C245A8FA89DC2D9272F
:1008A000A9EEBFC08090BC2A9343FB0AB396D1AE99
:1008B00013410168B92C53537C00A58441D6988814
:1008C00098FEDEF7E23743620E9383EE030A8DCA89
:1008D0008759366F61F7F4D6AB8B0F9C8396A46C67
:1008E0004643806BEA50DCD8CED4F4AE5BC60143FD
:1008F00085718D0C395EE43B2BC488B2C554960ECD
:10090000879A5093D69C91CA09648B23C429441AB0
:1009100067E1DAC71B2517022C8F2A133ACFD66559
:10092000312B10F5B596DF01997BADD6B4C035A358
:1009300048E3B09EFE33101A09AE3C0AA1728F0044
:1009400051E17823F5E2BFA64628B34B24B1A1DEDE
:10095000B1C4486FED5AD461F0DBE1085C64C0CAF1
:10096000E9A9DEDEECC0685B6DBD43828CCA69B16B
:10097000A9C8710D5D6DA5AB1A6794EE0593E33FB1
:10098000E81AE60F7F79F2CBC53757DFFC4FB4602A
:10099000C7973C61B00C4664F44392D2A5F0F3B71C
:1009A000DFAB20B1F5302AB3DC4B39B7853E1E1BD7
:1009B000948C26288045D60136D0EC934688D3D532
:1009C000895D7A82213EC240E3B4DEF5A569D5692E
:1009D000495C89CDAE137070ED690CECC6FE75EB09
:1009E0004ED6B3C860FB341EF86492D929A81338D8
:1009F0003D79C4BF21379DE34F21E53F2C5C5F412A
:100A0000FF148791E082040B1E5553DC5640A43539
:100A100078E29B49222E09CD1F6F9483EEEA8BC4A6
:100A2000C210E080D9A55F53349C8CEA956487940A
:100A3000D6321CEB93BFE35583C2F6FCC885B29453
:100A40005C425F6B8E3B9779747EE35CC2631A22D3
:100A5000B17F94CBE7B7FF0E3795AF1053178812CD
:100A600072DDCBAB4B6B6824ACC95C72094FF1FBF8
:100A70001DE7A230E9204BDA707C9EE234EB6A3548
:100A8000C233D79D07B1EFF675F5FDADC74BD0B7B3
:100A9000DDAE1E8D1EC0399CA71CC5CC3950C66B5F
:100AA000C6DA37C7E120EB74A53DC008FAC2DFF211
:100AB0009E432BF07750498CC32F68F32A9B831AEF
:100AC000DC05D8B77C3C611176EC2DFE86088715D5
:100AD000A3C01CB46A8D9EBF9AD5C85B05181015BB
:100AE000FBC63CEEC5524B313607B94C81EA83D781
:100AF00082FEFC43594E20BDD365CF1F5C711FBFE2
:100B000026EC44EB0174823C8E60DF479031177E07
:100B100016C0EC1EC33A7A5921A29B8E8725D3FEBC
:100B200085DD6DE6D8CA74BADB4230963D862286F2
:100B30006FDE371A932F032EE16E1662C1E12DFE90
:100B4000CBA8DF6405EF23BC71617B1B602227BD4E
:100B5000C6A37207AA09B052F219154DBEAF263BC3
:100B60004D62A63C41077A34253CD6CDB655478721
:100B70001ECBCFCED20D95C0D872A6E0332426511D
:100B80007E71C7533FD4677352CB785A00111571E9
:100B90005F8D3CCF40CDD97430D9A13FC658BCBE83
:100BA0007818319A3960BB8D7B3495A5F1543BB9E7
:100BB0008599AFC445EB64A76E5960EB1E7AFBFDC7
:100BC000924323F127AC661266288A5CF6C63F760C
:100BD00004E80927ED05AA26E5B4AD40BAF7F48488
:100BE000CB7F07108DB6C7D477EABA962A98F0560D
:100BF000D7FF504D59793D41E0FAA99D3EA6D979DC
:100C0000C80DD156C5ADD7FB703CBDF3E95D1C5393
:100C100093331DF81BEE9FB750AC8F485961C985BF
:100C20009EC8B0D27439DF33F528E06311A7C4053C
:100C3000BD3AD934CAF9AAE200E6E638573EEC19C3
:100C40007C0D2745C552C4FFF469C5F573734FE3A6
:100C500007C7CF38235B9C99A26A72B03539C10AA5
:100C6000C71C1A3060181D2BF0C8F179A394E33625
:100C7000359369059107126044FDB6C6FFE0CFA227
:100C8000CFC2A358AC32E32EEC0D9D1BFB0540BA3E
:100C9000678ECB38D7609CFE9EA170CC40728C8C46
:100CA000507185DD84925CEE44B6E0801532DD1B28
:100CB0004B8C6E8E3997A5AFC6F42985D385938565
:100CC000C854E4591D4EA0FEC507C1F73252F94D74
:100CD0004585FCA0FA37B59D47E852238D9287439E
:100CE000B4B84F951B1E4FE545BFCEC80CB27DE78B
:100CF000D92E88B72A61E12DC4212EB84DFD218758
:100D0000302511EC1F299431D292853817DA634DC2
:100D10008CB4065564B76CFCC28D5D978609D343CD
:100D200069E83577CCAF91363C7CA36E4E4AA2C9B8
:100D30004150EAABDF8704704F16F5A038F5601616
:100D4000CD0CE5C7E3AD00126B12853C5C7F76ED00
:100D500049F29D8FDFABE1DD8701ED2C1B4B551177
:100D60007FC392D391C1D8A737C7E55B482BED313C
:100D7000DECEFB95000000000000000008E3518477
:100D8000000B4D2673118B1EE200000000000000D6
:100D900000040473E072FFE659C90000000000047B
:100DA00048BFABF399877C07000000000004FB33C9
:100DB000B163616112AD000000000008AA30AC17F9
:100DC0004D3086BF6713F1A700000000000000004F
:100DD000041B48422384BB7FB4000000000008A627
:100DE0009F43785CA14E8BA6E67C49000000000082
:100DF00000000001F7315D27300000000000000016
:100E000000010B570B79F700000000000000000202
:100E10004433BBB45BC70000000000000001ABE33B
:100E200001C2D20000000000000000017A079EAD60
:100E300084000000000000000002F1EEF7D8295005
:100E400000000000000000012C35543ACC000000E6
:100E5000000000000001C93D666A98000000000023
:100E6000000005247AF71C2440EBA24DC266C83767
:100E70002C030FF301066D9A42F0948FEDBFE32827
:100E80003B72693775B4A09A6E31FD665BCBF3BADD
:100E90008CA431FFBA7C2454D3C6638993E4EDDA81
:100EA00058474EB58FD793FDAF31EAB4ECC9057DF5
:100EB0002B1596C1007E80E6F747CD6A77F10E5973
:100EC00013AA5C838870DCC4525220B6692D6C6C06
:100ED0008B662ACD5A4130D6FB7BA0EC7A22887CE7
:100EE000716EAF6206F4A8C688857636C5C0D8672D
:100EF000967CE84DD4FBA96F0FB2A7A3196A30FD09
:100F00006FFC2BCEA41B8E574851C6980FE5087B6B
:100F10004DFC59DDCF131B310C5E3B98E1F4C3410E
:100F2000D7A2645E16F9EBAE20E95D54BD99D3A754
:100F3000C1D9E53222D69F4FDD6B3C6DE94D96520B
:100F400011DA2386BE01C451C29CC6F52F1FD0F111
:100F5000F55782FECBFB4ADF1D0046B8A73A56661E
:100F600008714E47F827265F6CD8C305990A758F1C
:100F70004FC18872A05A1308A382842ECEB5A3460F
:100F800005D66A7856442386F2C963088BBDEE56AF
:100F9000D4361F375318E7DA1CFAD005D55FE7B708
:100FA000AD362BCB06C053F432A8756FE3C9A1B0A0
:100FB000A6E6C2410F5D2E0A64504692495B2D00A1
:100FC0002EB5213F0B4A719688844C98AA2823EBB2
:100FD000EF455C6278D6E4FB6DC3D9356CB92AC69F
:100FE0007471C40C657CA3F96E2DB986B00463944A
:100FF000CF267D9E1EF799DAE08CDD86F3C8F1C618
:101000004E155DED34BB90CDD626091EF6238451D6
:10101000C1AE428F8496C957AE16363A298765B25B
:10102000BA5696D2F509EF304A0F6236FE0030BD4F
:10103000091B50C33C48D725E18EB26F4D752DADCD
:10104000C61EBAFA4F41AF7A6FA0A04FB688346976
:101050008A9E837A60F3A87E392A209C325E7DC402
:10106000AA97E6263542A1A0EF39B31C2763D27FA9
:1010700075C01EB4FA4D7A818139E0792F94A52884
:101080003A437E97B594AF2A10380A7F4991C06CD5
:10109000659AC6C95DD552469874AC93E421B0EB0D
:1010A00008FAF4412EA6F9C5EDE33798C5DF528260
:1010B00041A2F2561AF3A4C6408DB95FAA751E1557
:1010C0001E68782B2BF43EC7CBF31360E0F48579D0
:1010D000880C227587B751E0D6E3A092D3D7E36C92
:1010E0005B3EB780E748D6D92F49CC75A004C948E4
:1010F00088E9CC3241AF30DEC6BC9DF7FCFF690306
:101100005058A1D6B87B5E60FCCC0014AF3A304199
:10111000B34E634795E4BD5374D0F002B4FE481952
:101120006C3F23F79B4411F2C245A637776C1063DE
:101130000E1BA7D196CA0D4F5B4351D614B723E7B8
:1011400099A49F4C7DD7DD0811844D5CE960900423
:101150008B1490F06F26450F208CE36F4678EB12CE
:10116000B45EF0DEEB222762784293BCE848C08888
:10117000BD0FDE232BD1880AE2B4338E613643588B
:1011800042AE6BD7F2FE0AC126947ACE8C3B435A0C
:1011900062EF708AFE4DD237DBA1B1061B30174CCF
:1011A000A0241EBECB64E2CE135CD705A6763938E8
:1011B000F3852C160EB3E23DFF79880B93EFAD5506
:1011C000CDB4EF8FB8167A05C05E920F4F9858D401
:1011D00022AD4325317852C69ACA5EA64E79979AB7
:1011E000BBDF6DF1E2D0B3CA2A5C46825C1EDDD063
:1011F000C519892B2CBDC084D9333967E4E479261D
:10120000B69D1C1DE470A5A76189254A57337D0D45
:10121000CAF3CC22AAD7D9CBE6B29646159568D8A0
:101220000FDF6B36DA198216CE384ECFF236C88011
:10123000075388042FB214195DC56CEF959C608B21
:101240006AE4FC9DB29CED1D9C1BCAA326DD9C6339
:101250005B3B882BBA2235240148EEA04F6E964E98
:101260002991AAAF5647BD7BDDA15599D8B5A147B5
:10127000937BCD7BCF65DE5018F20549F199D89468
:10128000213F7D52C6B1B4E19FF07E60648B30E4B3
:10129000AD2C97FB47F70901047BF4F7A7A804A539
:1012A0007F0858796D26276AD0D9AFC1C71223E1CC
:1012B000AE98A40FBC1BFA9D910B1515A524531ACB
:1012C00013E0C30095389C364CCFF6A9BCC1530639
:1012D00004F46FBF57E0A614A649707F392A4A5A12
:1012E000593633B90D4725393704777C45AC199306
:1012F0002549E07A7BA2C695768D3C79B1A7C38358
:1013000063032347D7ACFB84166F22490B97AAD5FA
:1013100038575E2BBBA749EDD2D57A96BE8DF5F92D
:101320004656F52FA7A87AFF3FE7E88CF148E84634
:10133000CB4D25F935932FCE8BB8A9C5D3D22771C4
:10134000866F72D9CA4E90D36DB13CD3CBC9303AB7
:1013500026459D66445C5FD8E3907C1BD882DDD334
:1013600084D4C61B58BF02A53B100A3EE309940B68
:1013700099882B47A79089C4482536DB7231ACF594
:10138000A30115D0E62161EB5972DC94000098F7B7
:10139000B0F9FAC10A7EDC69CE905E82110B97E249
:1013A0009955A23DFAEB88BC4DC2548D5FDEA3E295
:1013B00048132046C5A08104C42B9A8415B89E9B6F
:1013C00062A1EC7D083CAD214B89FCC6967C3A417C
:1013D000358A13BD1B43BF367A4ECE709E2AF6392E
:1013E00033C7334B347D2A81FA252EC5C4A1280E7C
:1013F000D54D15E069127119AAFF5948815653C994
:1014000035124D84699136D8ADF754D58CF9C68420
:10141000126222F1B92B1DA57C567A4D5AC4F09D5B
:101420008F5DB59A7FE7B7A85D6D3700000000E4D7
:10143000F2EA7A73F8FC6717F3D960090E8B0FE2B2
:10144000F98361DF5369D0EE4251B5514864F8DD4C
:101450003EEEA747F07C4BBB2B8EE28B6057634B75
:101460009BAA6763EAA3D57C4341A95474D286C37F
:10147000114269C5093E8F94AFC599BBBBAC61648D
:101480006101F2D359B1415091166CCC9BEC5CFEDA
:101490003BB3EC6ED7F10E5A8A5F1DB0C576542669
:1014A00007BC66F0ED519A1FE8F751588E1E8099DF
:1014B0001FEED643CCFA2FAE80F2A8A8AE437C80B4
:1014C00076D41AD4737461DFBF296F561593075809
:1014D00092F11DE87B68B2542030012DC5D8FD6122
:1014E00050140F584C1A5400127E46990C9DD1A3EB
:1014F00004F18217FEFC12E57581AFFF3D08D53976
:10150000874A8EF07AD4D0D6CFA9D6594841C2683E
:10151000E3A435458D141AC4000000000044892C52
:1015200063C8AF7BAC354327BE7ECF56403DA5ACEC
:101530000F97CCD46ED031D7146045AEDF0AAA33F2
:10154000B388E01C26DC00B875C86711A1B58771A7
:10155000F94A6AEC3F0E4121C24F928F1753EED5E4
:10156000EA4F917502590000000294E4DA4AB3AAE6
:10157000A72E9CC780465EBD06331DD85D9F5F7752
:10158000730A7D386BA70E8F4E7D01DA4474D2F159
:101590007A2F7FE1ECF1A57D033B2F17B6E80D33E1
:1015A0003C2191915B302C11C6586AE4351BB5A8DB
:1015B00047B3FFD0960E484E9737601204FFCBA575
:1015C000F51D409CDF36123DD92A72DAE88BE45BC8
:1015D000CFE93852EC2CA0F779AD20705920627316
:1015E0009CE34609C912D47755074B6A261E5D074E
:1015F00078104E4ADA5EF63B9B8DFD48D0BBAA219F
:101600002EF5DF854CA71D1A261BA082867F4B0274
:10161000D2F660C9860C1DBF736986184B44BC7432
:10162000E5821793B50A5608B74A73B804D2142155
:101630005E2CA0E0C2015FDECE642AD8652BF07478
:10164000E354BFA09B50BA02002C95CE2A4FCF2B5B
:101650002B0E9BDD8F675B54A1472E842E24FA341A
:10166000E05A103BCFAFE2ED28D1176B9A1B496CC3
:10167000FCCB7A74092A415AFFA1F598C60CD269AD
:1016800083D2C369875E7EBBFCC0D1C117D79BE103
:101690005370B743D038252649405B57BA4932AA20
:1016A0009F39AA8E73008513796DF1912F9EA3A0A7
:1016B000657C7D53B47053016B925F38F1D73D7AEE
:1016C000D607727ADBA165A50741004BEBC5D03B7D
:1016D000EB3061420D4BA3D8078B12F5893D7CFBA3
:1016E0002E79A7BCD5BF729AD81539AD2570D16CAB
:1016F000B05DBBF43AF66056FAF2A528AE0D76B3AB
:1017000079F14BC72E6EB6616222D9A730234521ED
:10171000DE478CEBE54C8B4E79A09D95B305AAAFC7
:10172000ECE67473F0DC37AD933B206DA1D8CFF9B4
:101730007E9EC6BB406456A6187528D2BA78645CF3
:10174000484570358C499A454A6DF29C8D480A612E
:101750002EE3D4EEA829404B53BB5639CE816CFD05
:1017600037A0791CC794176C37EA97F4D8D49F9F99
:10177000304FE5A408B86BAEB9BC4F612044DF928E
:10178000DB1E0483C0A12C09D8DF21F0200480AF28
:101790007391BC0EBAE4F79B363C30F1B4BADCFA74
:1017A00065F22B1D184E1662D4AC8B21A5A2F13226
:1017B000C3C965632D316BB88FE12493870499E623
:1017C000BDBA283063DAACC799378A8666B344D588
:1017D00084AAA15342A0381E5DF70529E7CA2A0B47
:1017E0006AABCEF03AF390E6D125A1331C33997D54
:1017F00024D17423FC6F7DDBA7E9C2DE17122D1CF8
:10180000B37E880000000000000308757D9A493708
:10181000AF60047CBCD31C53703497EBE1CD3079BE
:10182000A28694585A99C269D7B232626C0A366954
:10183000B1354841CE79967A0D2D33BF4D2FB8D8AA
:10184000B3FBE47193B9180D51ABBB09D90DD76740
:101850001E4728C7F7CE605828235E95FC2BDBF97E
:101860000D1FAB49E6D0A7377920E4CF05E364210B
:10187000ACDFB1E8F9E04C3B5E89682A48C5640EEC
:10188000DBF1538B1A2FF60C189C529B212E4AE742
:10189000D6BBB71A0A22AB4AFDD3027D21FFB90E8F
:1018A0000F29ABACF4445E0FD5F357E54F61724E90
:1018B000BA55378F9A1CD4B830AF0A951A1386D40C
:1018C0000A835C991B2BC093F513F5EAFB6F7574C3
:1018D0006C2E77C344C53862B9F5AC58B4966EA483
:1018E000A545B51B7C9D219516EE29572012BBF806
:1018F0000A2325AC51FD7AE09D43B0276F2ADF040F
:1019000008D3F11D3C128DAFF2D7B9029D46E3AB6F
:10191000FF61C8612B19C8C1A16D0AA744FAB5A817
:10192000D71E53156F7A4841E930B5ADE2F07040EB
:101930006AF331DD1950E5BCB43D839FDFC825272C
:1019400090405B32044781FA53B40A40157A745BC5
:10195000DB24AB3AB791E344B747073990D2F5A9F6
:10196000084658DC3210A347320445441371AC2EAC
:10197000A7C971D0F9517ECAE509A81E775B3A085C
:10198000AA431CD68D6091466D64569E162ECEB32A
:1019900099C8F655271384BC8AB3C8F51A72F76A3A
:1019A0000C46952F4A86B6D29894F1C3370E0C8711
:1019B00011567EAFDA22296FEBFAEC96E0276B42E4
:1019C000A170091AAD4888DAFCE13B62952856708F
:1019D0002803B258678D0AEA9A1595515F83070963
:1019E00020BF37AFF70A743CA552F1E3F55830E158
:1019F00017DE98F1387BF0AFBD165952996C7470B0
:101A0000487714FF534184BCC5372F71843DF54698
:101A10007C63E000A05607F78C6357BE545CE1FD81
:101A2000AC35FAC2D5F25ABE7C318EBDDBFE4D0319
:101A30006F5EA61F232DCA68F0C614CCC33EF021EA
:101A4000D4402A72B67EE285D68AFB48512777E4D5
:101A5000CBCD2FF6E1BCFEEDA1145FE532FCCFD972
:101A6000FB2FE9AD7D2D68E79A15956A4AE4ABE452
:101A7000EBE00D40BDEF8FB975B439086DC09F0420
:101A8000FFCCDE13304EB6E4E0CB69E5C61C2F4335
:101A90006A632572D5DFBDDC0BE9089D3D266FC367
:101AA00089F818AC42BF4E9D5D28B0264136768D30
:101AB0008684FAD8D467581969202D35FE09D98C47
:101AC000FDF921A157DF17AE8ECBC97F2654DE105A
:101AD0004372DDBC18B934F9AB70F9744D8E6D2AC0
:101AE000331406D071E6ADAABE862E9A8D8788AFD4
:101AF000039FCBF8789A663809CDAE89C2CCAF6A1D
:101B000016140948AE9B55E40FA586A1757F7CEF9E
:101B10000DCB3AB30D1F020000000C801FB4F4E09F
:101B2000A641CC8700406143E7FCB40000000124DB
:101B3000CA4534253C39FF098C39855A5BCC273C92
:101B4000BD28438645179A4E3524A423A2FDCA6CAE
:101B5000D4FBBAE741B3FB7C5507B56E3EB12972A1
:101B6000CC38EA273080B98CB8EE54AB3EDBDD06CA
:101B7000D095EA3E42886BAE89C7E84C38B693F6FA
:101B8000BE4C204A8CCE2B22D27249461856807009
:101B9000675AFAC0CA6D5321CAE3866891D37CA9FB
:101BA000D5AD6A72A1FE53E94085EA62A963753A30
:101BB0002DEC9BFE58D873205210435C2DB421B9F4
:101BC000961F726DBA42EAF285BE5212A7B13E2B41
:101BD00089EF0F73057C99C3C55F9653F8AF9B7A65
:101BE00049A044546055F0103A608D905065AEF7AE
:101BF00079DB2E08F9BBF2D278D086B594A10EB964
:101C00008189B7F9C043E88F3819DAED2FA75CDB7B
:101C100001B338CEE6C3F2D5AA879E116FD805F07E
:101C200072ABD9A10FFF46E94A8C0093E9866F6B2E
:101C30001470BEB1B889C9CC7D1A11D279FBD9D73D
:101C40002413948F019C4B69336601829888F84C69
:101C500013310F58C106113000000000B4899134CF
:101C60009B89FC75CD11CA1A6FFA71D645E70FEB47
:101C70003909B35A131FAA3A93CF8D6ECAEC2C8E32
:101C8000C5831B5AD6D189AC024FCB0F257696E07F
:101C90005D2CFFA7EAEA92F1725BEE08D8848AA96C
:101CA00059E31277DAD6CA4E362D7CA413D1E81840
:101CB000319902540AD07A74A0AD2C834A6FF1B1E5
:101CC000501B6469E8842F2CC8EB953DA518C74BC1
:101CD00082FC88E1D37B0EBE10BA6502859B469AD2
:101CE000377A774DC2C45330679154F63D39444337
:101CF00042132E0929FD50A6DA94CE8697102B5C4C
:101D00001C09CD0FFC15DC543B53E17CA7E1FD47DA
:101D1000C2AF7EEA34000000000C6FE65C04306C59
:101D200084C751E3B55F349EDD05000000000C1C44
:101D3000D4BCFBCD3AAEBC529254852CED0FFB00C7
:101D4000000000F873105DD81F06E0A15926B439D1
:101D50003FC119F9D4BE4FF433EC3F3FFE8F91D011
:101D600044F21278909E79A927EE05CB9F5A4B1525
:101D7000DE6739181FE73A0A4198E7DEA728A0D3A3
:101D800054663379B53A83375F25407047B8796B2D
:101D900062963F48EA9F6ECB35E16F2DC4C24B9BE4
:101DA000A74D05790E1CFE095A9F87227A131B9FA7
:101DB000994D05DB1573D865FE395EA4437B6C79BC
:101DC000BD73914C9B4C941887EA68A7449F5C367E
:101DD00066FD41145EB18EEB45DA770EE0EC5EF401
:101DE0000DBF41C648F015D860F74076237B1CE54F
:101DF00059445030CE064EC5A670C31817A237AC52
:101E0000BF2C6FBC9B3F58121110390018DB7D0BA3
:101E1000D22CEE0AAF76947AC15C21D2619F1D7AF2
:101E20009695DFA45181E61BD57C3644F060FF3ADD
:101E3000F632EC8FE09AC7E3BCADEBA694714B6D24
:101E400000000000000038974C36A275FFFB3FEB06
:101E500060E131B1BC32776CBD49934BC207BAF037
:101E600067FD68CAF5A4FF2A5EE2BEB569B2A06349
:101E7000931BB4BD4612FAEE885F46DFB2BAE8BAE9
:101E80005447EA000018FA0891779B1C878B017071
:101E90009EC0052BAAD7AF30A8018B28A0F5959935
:101EA000325F00000000000008C4EF65453CC36DD0
:101EB000EFB8349D1C00000000000000000466869E
:101EC000F2BC9D8797BE000000000008DD58DD537E
:101ED0000F7DEC930BB95BE30000000000000000F5
:101EE000087615DFC7682FA8F84D338FAE000000C5
:101EF00000000000000884C3E8CB9C718009D71162
:101F000063210000000000000000040EC6F0509E97
:101F10000AA7990000000000149A5AF9AA5F06DF88
:101F20005C52374B390C7E18C1ABD636F578BD9F65
:101F3000790000000EF233610EC30B5A24023F42B7
:101F4000353DA4ADC53050000076E7E3450866187E
:101F500021EBDD1476F8F155E83B9D8B9392FFA7BA
:101F6000803438C2AD7CFFBD232B0B2C5FEAC095BB
:101F700000FB8C376B8A42913EEFD65143216F8034
:101F80003EBDF2B32407A5924A76513172354725FA
:101F9000E7B9D0F4C2DD52353A23C416FA2A8D9936
:101FA000D0B953C2125C3FCE8DDBD1C8D159E58880
:101FB000FF4911ABAB7BD1F2B43749A0B1FEFE6C47
:101FC00008761D0B0000009AF4B16DA0F220E41712
:101FD000A74D85B38E7ACB8730AF119020A819EA30
:101FE0002207FAC14CE8FCA2038F2AC536E4AF668B
:101FF0009BBA0ADD6590DAD72762D9193BABF66642
:10200000892DA53070E9AAE2D9C12347FD9A254A56
:102010005F896297614B91FC341BFC97B27B87F41C
:1020200054FCD63648C28779A3C48F42B13147DD0C
:10203000E8D00A714722F3F49F287A700CBC59301B
:10204000E0E4132465BD4C0E6D9E4D15901972C9C8
:1020500028B6950E92F9795C64B9B97BD7DCB4B92E
:10206000B4967F7255AE00001EB0028E45BDF0A53D
:1020700090B7301240B6409CF16263726DF0BA1AAC
:10208000F6F0406A47A2FC9BD870190000000000DF
:1020900000001AF524F64D2F64FDF7C3FDA7455D3A
:1020A00094318FD69F5D216641D43951AF618C1E2A
:1020B0009F000000000611E97A8831E126B61C7401
:1020C00000000006F59835171AAB193A8CC60000C7
:1020D000000E7E14D06E441C666167F18E2872304B
:1020E000D2BF7D6F000008179962EE7818543AD578
:1020F0007F61AC000000000000000010833E2C92C5
:102100004F5A985997FB8297ADC873A26C0D06CFB2
:10211000000000000000000A69DAEB9EF7677FDE2E
:10212000E8830B465A3F00000000000002B3607FC6
:10213000DCA3FF00000000000000148ECFA2657237
:10214000CE3E11392D9494478EC78C706B7C498E8E
:102150003CD74C00000002C877A5FDBA9A000000E9
:10216000000000000A1A1BD94A8303DFE2756E28BB
:10217000D9631F000000000000021827278F4BE7DB
:1021800000000000000000000000A90253776974FD
:10219000636820746F2053534200536934373358B7
:1021A000206E6F7420666F756E6421210045455066
:1021B000524F4D2052455345540056332E302E3742
:1021C000202D20427920505532434C5200417264F8
:1021D00075696E6F204C696272617279202D0041C1
:1021E0006C6C20696E204F6E6520526164696F00CF
:1021F0005349343733352D44363020627920444DED
:1022000032485200C8A1A81FDA028D1453746570B9
:102210003A00566F6C756D653A0041474300417452
:1022200000487A0042464F3A200042573A000000E8
:102230000000240027002A000000000025002800DC
:102240002B000000000023002600290004040404E1
:102250000404040402020202020203030303030350
:102260000202030102040810204080010204081049
:1022700020010204081020408040000000090003F3
:10228000020000040508000000000000000000003B
:102290000000C02211241FBECFEFD8E0DEBFCDBFAB
:1022A00014E0A0E0B1E0E8E8FCE502C005900D9282
:1022B000A435B107D9F726E0A4E5B4E001C01D922A
:1022C000A83DB207E1F711E1CAE4D1E104C02197CA
:1022D000FE010E94282EC934D107C9F70E9480232D
:1022E0000C94422E0C94000091E09093330580935F
:1022F0003205109231051092300508959091300505
:1023000081E0913208F043C080910F058111FCCF2C
:102310008091320522E020930F0521E020930E05E5
:102320002FEF20930D0520E135E030930C0520932D
:102330000B0510920A0590930905109208059091DB
:102340000805880F892B8093080580910705813047
:1023500029F510920705809108058093BB008091B4
:10236000BC0083FDF8CF85EC8093BC0080910F0505
:102370008230E1F380910D058F3F91F080910D0542
:10238000803281F080910D05803371F084E01092ED
:1023900031051092300510923305089585EEE4CF93
:1023A00080E0F5CF82E0F3CF83E0F1CF0C947E1193
:1023B00008950895FC01538D448D252F30E0842F1E
:1023C00090E0821B930B541710F0CF96089501975D
:1023D0000895FC01918D828D981761F0A28DAE0F4A
:1023E000BF2FB11D5D968C91928D9F5F9F73928FD1
:1023F00090E008958FEF9FEF0895FC01918D828DFD
:10240000981731F0828DE80FF11D858D90E00895C9
:102410008FEF9FEF0895FC01918D228D892F90E021
:10242000805C9F4F821B91098F7399270895FC014F
:10243000A48DA80FB92FB11DA35ABF4F2C91848D25
:1024400090E001968F739927848FA689B7892C9382
:10245000A089B1898C91837080648C93938D848DD5
:10246000981306C00288F389E02D80818F7D8083D8
:102470000895EF92FF920F931F93CF93DF93EC0198
:1024800081E0888F9B8D8C8D98131AC0E889F9891B
:10249000808185FF15C09FB7F894EE89FF8960831E
:1024A000E889F98980818370806480839FBF81E09F
:1024B00090E0DF91CF911F910F91FF90EF900895E1
:1024C000F62E0B8D10E00F5F1F4F0F731127E02EBC
:1024D0008C8D8E110CC00FB607FCFACFE889F989F4
:1024E000808185FFF5CFCE010E941712F1CFEB8DD1
:1024F000EC0FFD2FF11DE35AFF4FF0829FB7F894C8
:102500000B8FEA89FB8980818062CFCFCF93DF93E5
:10251000EC01888D8823B9F0AA89BB89E889F989FB
:102520008C9185FD03C0808186FD0DC00FB607FC30
:10253000F7CF8C9185FFF2CF808185FFEDCFCE0163
:102540000E941712E9CFDF91CF91089584E395E0BF
:102550000E940B1221E0892B09F420E0822F0895BC
:1025600080E090E0892B29F00E94A61281110C9442
:1025700000000895843081F028F48230E9F083303F
:10258000F9F00895883071F0893091F08530B9F410
:10259000809180008F7D03C0809180008F77809331
:1025A000800008958091B0008F778093B0000895E7
:1025B0008091B0008F7DF9CF84B58F7784BD089569
:1025C00084B58F7DFBCFCF93DF93282F30E0F901C7
:1025D000E658FD4D8491F901ED59FD4DD491F90175
:1025E000E45BFD4DC491CC23A1F081110E94BA128D
:1025F000EC2FF0E0EE0FFF1FEE5BFD4DA591B491C7
:10260000EC91ED2381E090E009F480E0DF91CF913F
:10261000089580E090E0FACF1F93CF93DF93282FA7
:1026200030E0F901E658FD4D8491F901ED59FD4D79
:10263000D491F901E45BFD4DC491CC23A9F0162F90
:1026400081110E94BA12EC2FF0E0EE0FFF1FE85C40
:10265000FD4DA591B4918FB7F894EC91111108C07C
:10266000D095DE23DC938FBFDF91CF911F9108952A
:10267000DE2BF8CF10920605109205051092310559
:102680001092300510920F0581E080930E05109294
:10269000070561E082E10E940C1361E083E10E9482
:1026A0000C13E9EBF0E080818E7F808380818D7F49
:1026B000808380E28093B80085E48093BC0088ED3D
:1026C00091E1909304058093030589ED91E1909346
:1026D0000205809301050895CF93DF9390E0FC01FC
:1026E000ED59FD4D2491845B9D4DFC01849188231F
:1026F000D1F090E0880F991FFC01E25DFD4DA5919E
:10270000B491FC01E85CFD4DC591D491623071F447
:102710009FB7F8943C91822F809583238C93E88116
:102720002E2B28839FBFDF91CF9108958FB7F89408
:10273000EC912E2B2C938FBFF6CF00000000880F5A
:10274000991F05970197F1F708953FB7F894809185
:10275000D8049091D904A091DA04B091DB0426B595
:10276000A89B05C02F3F19F00196A11DB11D3FBFC9
:10277000BA2FA92F982F8827BC01CD01620F711D98
:10278000811D911D43E0660F771F881F991F4A9591
:10279000D1F708958F929F92AF92BF92CF92DF921E
:1027A000EF92FF926B017C010E94A5134B015C012B
:1027B000C114D104E104F104B9F00E94A513681911
:1027C00079098A099B09683E73408105910580F368
:1027D00021E0C21AD108E108F10888EE880E83E0F2
:1027E000981EA11CB11CE4CFFF90EF90DF90CF901A
:1027F000BF90AF909F908F900895CF93DF93C0E8E4
:10280000D6E061E088810E946C136AE070E080E0AD
:1028100090E00E94CA1360E088810E940C136AEF66
:1028200070E080E090E00E94CA1361E088810E941D
:102830000C136AEF70E080E090E0DF91CF910C9490
:10284000CA132FB7F8946091D4047091D504809185
:10285000D6049091D7042FBF0895DC01ED91FC912F
:102860000190F081E02D0994EF92FF920F931F9356
:10287000CF93DF938C017B01D0E0C0E0F701EC0F38
:10288000FD1F6491662361F0D801ED91FC910190E8
:10289000F081E02DC8010995892B11F02196EECF2A
:1028A000CE01DF91CF911F910F91FF90EF9008958E
:1028B000AF92BF92CF92DF92EF92FF920F931F934E
:1028C000CF93DF936C017B018B01040F151FEB018C
:1028D0005E01AE18BF08C017D10759F06991D60143
:1028E000ED91FC910190F081E02DC6010995892BB5
:1028F00079F7C501DF91CF911F910F91FF90EF9074
:10290000DF90CF90BF90AF900895E091DD05F091FA
:10291000DE050994E091DF05F091E0050994E0916E
:10292000E105F091E2050994CF93C82F0E948A1423
:1029300081110AC00E9485140E948F1480E40E94B5
:102940008A148C2F0E948A148091DC048F5F8093FC
:10295000DC04CF910895CF93DF93D82F8091DE04CC
:102960008D0F8093DE040E948F1480E40E948A14ED
:10297000C0E0DC1729F080E00E949414CF5FF9CF0B
:10298000DF91CF910C9485140E948F1480E00C94F9
:102990008A140F931F93CF93DF93082F162FD09194
:1029A000E004D80FC091DF04C60FC770C06B0E944F
:1029B000C4148C2F0E948A148D2F82958F70806191
:1029C0000E948A148D2F8F700E948A140E94851491
:1029D0000093DE041093DD041092DC04DF91CF91AC
:1029E0001F910F910895CF93C0E080912B03C817DA
:1029F00070F46C2F80E00E94C91480912A0390919A
:102A0000DE04891B11F00E94AB14CF5FEECF60E0B3
:102A100080E0CF910C94C9148091A20401C0660F8C
:102A20008A95EAF79091DD04960F9093DD048091EA
:102A30002B03482F461B550B9417150621F01CF04D
:102A4000861B8093DD046091DD0480E00C94C91442
:102A5000AF92BF92CF92DF92EF92FF920F931F93AC
:102A6000CF93DF93A091A004B091A10412961C9182
:102A70001297C62FD0E011110DC014962C91149707
:102A8000AE01421B51091896ED91FC911997E40F84
:102A9000F51F14911396BC9000919F04E12EF12C28
:102AA0004091DE0420912A0330E02E193F0942179D
:102AB000130621F01CF06B2D0E940C158091DE0492
:102AC0008E0D9F2D911D800F911D20912A03281797
:102AD00019060CF400E0A091A004B091A104149692
:102AE0008C911497C81BD109A9F012968C9112975A
:102AF00013969C911397492F50E0882311F1899FD9
:102B0000C00111249E01289FE001299FD00D389F0C
:102B1000D00D1124AB2C0E948F1480E40E948A14E3
:102B2000CE01282F2C1B211708F441C0CE0DDF1D2C
:102B3000D12C0D1509F44DC080E00E949414D3945B
:102B4000F8CFBE01F4E076956795FA95E1F730E0AD
:102B500020E090E080E06217730781F06901CC0CFF
:102B6000DD1C1696ED91FC911797EC0DFD1DC5909F
:102B7000D4908C0D9D1D2F5F3F4FEDCF9E01207F88
:102B80002C173D0760F41896ED91FC911997E20F10
:102B9000F31FE4918E0F911D2F5F3F4FF1CF849F64
:102BA000E001859FD00D949FD00D1124B3CF6C010F
:102BB0004FEFC41AD40AE091A004F091A10401904F
:102BC000F081E02DE80FF91F84910E949414C60152
:102BD000A8CF0E9485146091DD0451E06F5F809161
:102BE000DE045A1528F06B198091DE04810F800FE6
:102BF0000E94C914AA94A1108ECFDF91CF911F918A
:102C00000F91FF90EF90DF90CF90BF90AF9008951D
:102C10006D3039F1E091A004F091A1046A3019F40B
:102C200063810C940C1524816217D8F02581261736
:102C3000C0F02091A5043091A604A90155954795AF
:102C4000840F951FE091A304F091A40420FF08C015
:102C5000DC012D913C91E20FF31F0190F081E02DFA
:102C60000994089585ED8093BC008091BC0084FD9B
:102C7000FCCF10920F05089520917C04260F332776
:102C8000331F21323105ECF420910F05FC0190E057
:102C900080E0243069F082E00895A0917C042191C5
:102CA000AC01445A5B4FA40FB52FB11D2C93019674
:102CB000861798F380917C04680F60937C0480E011
:102CC000089581E008950895E09106058091050535
:102CD000E81730F4F0E0EF51FB4F808190E0089569
:102CE0008FEF9FEF089590910605809105052FEFD6
:102CF0003FEF981748F4E92FF0E0EF51FB4F2081A8
:102D000030E09F5F90930605C90108958091050505
:102D100090910605891B990B0895CF92DF92EF924F
:102D2000FF920F931F93CF93DF937C01CB018A0116
:102D300020913305222389F0EB016B01C40ED51ECF
:102D4000CC15DD0569F06991D701ED91FC910190F9
:102D5000F081E02DC7010995F3CF642F0E943C1646
:102D6000C801DF91CF911F910F91FF90EF90DF90FD
:102D7000CF900895CF93DF931F92CDB7DEB76983CD
:102D8000209133052223F9F020913005203258F0AC
:102D900021E030E0FC013383228390E080E00F905B
:102DA000DF91CF91089580913105E82FF0E0E05F49
:102DB000FA4F998190838F5F80933105809330051E
:102DC00081E090E0ECCF61E0CE0101960E943C16DC
:102DD000F7CF682F81ED95E00E94BA1621E0892B8C
:102DE00009F420E0822F0895682F81ED95E00C947E
:102DF000BA168091CF049091D00421E0892B39F448
:102E00008EE00E94E31221E0892B09F020E0822F5E
:102E100008950E9421146093D0067093D106809388
:102E2000D2069093D3061092CC041092CB0408954E
:102E30008CE30E94741181E008950E943A130E946D
:102E400018170E94D611882339F06AE070E080E0FC
:102E500090E00E94CA13F3CF0895E091A704F09187
:102E6000A8042091A9043091AA04A9014170552712
:102E7000309719F44115510579F035952795820F52
:102E8000931F452B41F0DC012D913C91E20FF31F84
:102E90000190F081E02D099581E090E0089508957A
:102EA00090E080E00895982F80910F058111FCCF6C
:102EB000862F21E020930F0520930E053FEF3093DE
:102EC0000D0541EE54E050930C0540930B05109214
:102ED0000A05360F3093090520930805209108054F
:102EE000990F922B90930805909107059130E1F48A
:102EF00010920705909108059093BB009091BC003B
:102F000093FDF8CF95EC9093BC0090910F05913014
:102F1000E1F390910A05961710F480910A0510923A
:102F2000060580930505089595EEEDCF8CE291E0BE
:102F30000E949D1361E070E0809175069091760685
:102F40000E94531781ED95E00E94731687FFEECF24
:102F50000895CF93DF93D82FC92F0E949617D0934F
:102F60009406C0939506C0939706D09398069091C7
:102F7000CA06992361F0809196069295990F990F50
:102F8000907C8370892B81608D7F809396068091E1
:102F900075060E9474116091810681ED95E00E9492
:102FA000BA166091960681ED95E00E94BA1660917E
:102FB000970681ED95E00E94BA166091980681ED22
:102FC00095E00E94BA166091990681ED95E00E9405
:102FD000BA1680918106803431F460919A0681EDB1
:102FE00095E00E94BA160E947E110E949617D09317
:102FF0008606C0938706609177067091780690E008
:1030000080E0DF91CF910C94CA13CF93C82FCF707B
:103010000E949617809175060E94741182E190E0DB
:103020000E94F41690E080E00E94F41661E381EDC6
:1030300095E00E94BA1662E081ED95E00E94BA1612
:1030400061E081ED95E00E94BA166C2F81ED95E06C
:103050000E94BA160E947E11CF910C9496171F936E
:10306000CF93DF93162F90918106C8E2903221F022
:10307000C8E4903509F4C8E5D0E080FBD0F90E949F
:103080009617809175060E9474116C2F81ED95E062
:103090000E94BA166D2F81ED95E00E94BA16612F3D
:1030A00081ED95E00E94BA160E947E11DF91CF91CA
:1030B0001F910C9496170F931F93CF93DF93182FA4
:1030C000092FEB010E949617809175060E947411DA
:1030D00082E190E00E94F41690E080E00E94F416F5
:1030E000602F81ED95E00E94BA16612F81ED95E089
:1030F0000E94BA166D2F81ED95E00E94BA166C2FD2
:1031000081ED95E00E94BA160E947E1186E292E05F
:10311000DF91CF911F910F910C949D13CF93C82FE6
:10312000682F70E080E090E40E945B18C093C806AE
:10313000CF910895CF93DF9320918106203259F1EA
:10314000EC010E949617809175060E94741182E12D
:1031500090E00E94F41690E080E00E94F41661E096
:1031600081ED95E00E94BA1660E081ED95E00E9445
:10317000BA166D2F81ED95E00E94BA166C2F81ED85
:1031800095E00E94BA160E947E1186E292E0DF91DD
:10319000CF910C949D13DF91CF9108950E949617C3
:1031A000809175060E94741182E190E00E94F416ED
:1031B00090E080E00E94F41661E081ED95E00E94CD
:1031C000BA1661E081ED95E00E94BA166091C506DD
:1031D00081ED95E00E94BA166091C40681ED95E0FC
:1031E0000E94BA160E947E1186E292E00C949D1312
:1031F00061E070E080917506909176060E94531709
:1032000081ED95E00E94731608958091CB0687FDAD
:1032100007C061E00E940C138CE291E00E949D13B4
:103220000E949617809175060E94741181E190E0CA
:103230000E94F4160E94F8188093A3060E947E1143
:1032400084EC99E00C949D13CF93DF93D82FC92F72
:103250000E949617D0939406C0939506C093970644
:10326000D09398068091CA06882331F08295880F02
:10327000880F807C80939606809175060E94741159
:103280006091810681ED95E00E94BA1660919606E4
:1032900081ED95E00E94BA166091970681ED95E068
:1032A0000E94BA166091980681ED95E00E94BA16C8
:1032B0006091990681ED95E00E94BA168091810691
:1032C000803431F460919A0681ED95E00E94BA163F
:1032D0000E94F8188093A3060E947E110E94961700
:1032E000D0938606C093870660E570E080E090E0AA
:1032F000DF91CF910C94CA131F93CF93DF930E9459
:103300009617809175060E94741181E090E00E94EA
:10331000F4166091C60681ED95E00E94BA166091A0
:10332000C70681ED95E00E94BA160E94F8188093B6
:10333000A3060E947E116091790670917A0690E052
:1033400080E00E94CA138091CB0687FD07C060E031
:103350000E940C138CE291E00E949D1380918C06D8
:1033600081111EC0C0918F06D0919006BE0181E0F0
:1033700092E00E945B18D0939006C0938F06109144
:103380009306C0919106D0919206BE0182E092E030
:103390000E945B18D0939206C093910610939306F7
:1033A000DF91CF911F910895FF920F931F93CF93B9
:1033B000DF93182F80918106803251F0C8E0D0E071
:1033C00002E4803441F0C6E0D0E002E5803519F037
:1033D000C8E0D0E002E20E949617110F12708091AF
:1033E00075060E947411602F81ED95E00E94BA1657
:1033F000612F81ED95E00E94BA160E947E110E9415
:103400009617BE0180917506909176060E9453171B
:10341000F12C0F2D10E00C171D0754F481ED95E0F1
:103420000E947316F801ED55F94F8083F394F1CFA4
:103430008091A30686FDE3CFDF91CF911F910F917D
:10344000FF900C94961781E00E94D4198091A606F3
:103450009091A506E6E8F6E0808391830895AF9207
:10346000BF92CF92DF92EF92FF920F931F93CF9371
:10347000DF93CDB7DEB728970FB6F894DEBF0FBE47
:10348000CDBF0E94F3146CE871E284ED96E00E94D7
:1034900034140E9405190E949617809175060E94A7
:1034A000741181E090E00E94F4168FE190E00E9498
:1034B000F41685E090E00E94F4160E947E117E01D1
:1034C00029E0E20EF11C0E94961768E070E08091FE
:1034D0007506909176060E9453178E010F5F1F4F5D
:1034E00081ED95E00E947316F80181938F01EE162D
:1034F000FF06B1F7898186FDE6CF84EC99E00E9452
:103500009D130E949617809175060E94741181E0A8
:1035100090E00E94F41681E390E00E94F41685E0AA
:1035200090E00E94F4160E947E11609179067091DD
:103530007A0690E080E00E94CA1362E370E080E0C7
:1035400090E00E94CA13D12CC12C10E000E087EE5D
:1035500092E0FC0125913491C216D30609F473C0A0
:103560000296F3E085359F07A1F746E1F42E80919E
:1035700075060E9474116F2D81ED95E00E94BA16B8
:10358000F12CE12CC8018B5A9C4F5C01F501EE0D2A
:10359000FF1D649181ED95E00E94BA169FEFE91A34
:1035A000F90AE7E0EE16F10489F70E947E118CE239
:1035B00091E00E949D13FFEFCF1ADF0A095F1F4FB2
:1035C00007332EE1120709F0C2CF8AEF90E00E9484
:1035D0009D13809181068032D1F0E09101018E2F00
:1035E000EE0F990BFC01EE0FFF1FE80FF91FE557D7
:1035F000FC4F80818F7080618093C4068091C506E6
:103600008078806180688093C5060E94CE1880E231
:103610008093B80081E08093C704E091C004F091EA
:10362000C104108228960FB6F894DEBF0FBECDBF3E
:10363000DF91CF911F910F91FF90EF90DF90CF908E
:10364000BF90AF90089535E1F32E91CFFF920F9385
:103650001F93CF93DF93EC01F62E08811981C801E7
:103660000E94742CF81621F06F2DC8010E947C2C4A
:10367000CE01DF91CF911F910F91FF9008950E948D
:103680003D2EFB0101900020E9F73197AF01461B69
:10369000570BDC01ED91FC910280F381E02D099440
:1036A0008F929F92AF92BF92EF92FF920F931F93D0
:1036B000CF93DF93CDB7DEB7A1970FB6F894DEBFF7
:1036C0000FBECDBF7C01FA01CB0119A2223008F454
:1036D0002AE08E010F5D1F4F822E912CB12CA12C60
:1036E000BF01A50194010E94062EF901CA016A30AA
:1036F0000CF5605DD8016E938D01232B242B252BB7
:1037000079F790E080E0109721F0BD01C7010E9499
:10371000411BA1960FB6F894DEBF0FBECDBFDF915F
:10372000CF911F910F91FF90EF90BF90AF909F901E
:103730008F900895695CDECFCF92DF92EF92FF9277
:103740000F931F93CF93DF936B01770FEE08FF0862
:10375000F7FE1BC0EC016DE20E942D148C01442782
:103760005527BA014C195D096E097F092AE0CE017F
:103770000E94501B800F911FDF91CF911F910F91DD
:10378000FF90EF90DF90CF9008952AE0B701A60157
:10379000DF91CF911F910F91FF90EF90DF90CF902D
:1037A0000C94501B462F50E070E060E02AE00C942F
:1037B000501B009729F0BC0184ED96E00C94411B4E
:1037C00090E080E00895CF93DF9363E08CE30E9464
:1037D000C914D091DE04E091A004F091A104C3814A
:1037E0008091A20401C0CC0F8A95EAF780912A0348
:1037F0009091DE04891B11F00E94AB14C23030F0AE
:103800006091DD046F5F8D2F0E94C914C15071F764
:1038100063E08CE30E94C91465EE72E084ED96E0EB
:103820000E9434148091D204882341F06BED72E041
:1038300084ED96E0DF91CF910C943414E091D104A3
:10384000F0E0EE0FFF1FEA5CFC4F808191810E9447
:10385000D91B8091D1048F5F8C30A8F480935B04D6
:1038600063EE72E084ED96E00E943414E0915B0414
:10387000F0E0EE0FFF1FEA5CFC4F80819181DF9149
:10388000CF910C94D91B10925B04EACFCF92DF92B8
:10389000EF92FF92CF93DF93C091CD04D091CE04ED
:1038A0006E01F12CE12C60E080E00E94C91462EA14
:1038B00072E084ED96E00E9434148091CA04811174
:1038C00007C09E01AAE0B0E00E942E2E6B017C0191
:1038D00089EEC81683E0D806E104F104A0F0C70120
:1038E000B60128EE33E040E050E00E94062EBA0117
:1038F000A9012AE084ED96E00E94501B6EE284ED5F
:1039000096E00E942D14C701B60128EE33E040E096
:1039100050E00E94062E6B017C018AE0C816D1049B
:10392000E104F10420F58DEC93E00E94D91B2AE01C
:10393000B701A60184ED96E00E94501B6FE284ED72
:1039400096E00E942D14E0910401F0910501EE0F24
:10395000FF1FE75AFC4F6081718184ED96E0DF9193
:10396000CF91FF90EF90DF90CF900C949C1B84E65A
:10397000C816D104E104F104D0F660E384ED96E0CA
:103980000E942D14D4CF9093CE048093CD040C9438
:10399000461C109229030E94F3140E94461C69EDF4
:1039A00072E084ED96E00E9434148091270320E1B8
:1039B000829FC0011124805F9E4F0E94D91B67ED3A
:1039C00072E084ED96E00E943414E091CA04F0E0C5
:1039D000EE0FFF1FE45DFC4F808191810E94D91B97
:1039E0008091C7048823C9F061ED72E084ED96E010
:1039F0000E9434146091C8047091C90484ED96E06B
:103A00000E949C1B6FE284ED96E00E942D14609151
:103A1000060184ED96E00E94D21B8091C7046AECF7
:103A200072E0811102C063EC72E084ED96E00E94C6
:103A300034146091C20484ED96E00E94D21B809100
:103A4000C70481110BC06FE284ED96E00E942D1433
:103A50006091A00684ED96E00E94D21B6FEB72E0AD
:103A600084ED96E00E9434146091C80684ED96E0DF
:103A70000E94D21B6AEB72E084ED96E00E9434143F
:103A80006091030170E084ED96E00E949C1B65EB61
:103A900072E084ED96E00E9434148091CA04813073
:103AA00028F0833080F0833009F43FC0E091AE0409
:103AB0008E2FEE0F990BFC01EE0FFF1FE80FF91F81
:103AC000E959FC4F0CC0E09101018E2FEE0F990BCC
:103AD000FC01EE0FFF1FE80FF91FE557FC4F818136
:103AE00092810E94D91B6FEA72E084ED96E00E94F9
:103AF00034148091AC04882329F16091AB0484EDE7
:103B000096E00E94D21B8091CA0481110CC065EA24
:103B100072E084ED96E00E9434148091C00490918C
:103B2000C1040E94D91B0C94E31BE09100018E2F6D
:103B3000EE0F990BFC01EE0FFF1FE80FF91FEA587B
:103B4000FC4FCDCF6AEA72E084ED96E00E94341417
:103B5000DACF0F931F93CF93DF93E091C004F091DE
:103B6000C1041082E091270320E1E29FF0011124BB
:103B7000E95FFE4F808181116DC180919606837C43
:103B80008093960690918106903409F45BC110925F
:103B9000990680918606909187060E94A917E09168
:103BA000270380E1E89FF0011124E95FFE4FA78120
:103BB000B0E0AA0FBB1FA75ABC4F4D915C91858105
:103BC000968123813481C181D281D0938306C093B1
:103BD000820630938506209384065093890640938D
:103BE00088068C179D0720F02817390708F0EC018C
:103BF0000E9405199091C90620918C0630918E067D
:103C00008091C60640918D0640FB87F930FB86F90E
:103C10008F7D20FB84F9807F8093C6069093C70632
:103C200080E28093810680919606807C83608093F9
:103C300096061092990681E080939A060E947C195C
:103C40008091C8060E948E181092CA06809175064F
:103C50000E94741182E190E00E94F41690E080E0EE
:103C60000E94F4168FEF90E00E94F41690E080E03E
:103C70000E94F41690E080E00E94F41690E080E04C
:103C80000E94F4160E947E1184EC99E00E949D131C
:103C900010928A06D0938706C0938606CE010E94B2
:103CA000A917E091270390E1E99FF0011124E95F52
:103CB000FE4FC381D4816181728180E094E10E94D2
:103CC0005B18BE0181E094E10E945B1861E070E046
:103CD00082E094E10E945B181092C7040E9496173C
:103CE000809175060E94741182E190E00E94F416A2
:103CF00090E080E00E94F41665E181ED95E00E947D
:103D0000BA1662E081ED95E00E94BA166AEA81ED8A
:103D100095E00E94BA1661E081ED95E00E94BA1626
:103D20000E947E1186E292E00E949D13E9EEF5E08A
:103D300080E2819326E0EA32F207D9F71092290651
:103D4000EAE2F6E08BE496E020E221938E179F07EB
:103D5000E1F710924A06EBE4F6E084E596E020E213
:103D600021938E179F07E1F7109253061092720667
:103D70001092710610927F061092700610926F06D4
:103D800010926E0610926D0661E070E081E095E1A0
:103D90000E945B18E091270380E1E89FF001112465
:103DA000E95FFE4FE085E093AE048E2FEE0F990B96
:103DB000FC01EE0FFF1FE80FF91FE959FC4F60816E
:103DC00070E082E091E10E945B186FE770E085E0AF
:103DD00091E10E945B186FE770E086E091E10E943C
:103DE0005B18E091270320E1E29FF0011124E95FD5
:103DF000FE4F87858093CA04858196819093CE0477
:103E00008093CD04278130E0309305012093040195
:103E10000E94241962E370E080E090E00E94CA13DF
:103E2000809102010E948E1862E370E080E090E0D1
:103E30000E94CA130E94C91CDF91CF911F910F915C
:103E40000C9409178D7F8093960610929906109214
:103E50009A069FCE8150833090F480919606837CA1
:103E60008093960690918106903409F4D7C0109201
:103E7000990680918606909187060E94A917A091C5
:103E8000270390E1A99FD0011124A95FBE4F179687
:103E9000EC911797F0E0EE0FFF1FE75AFC4F2081DF
:103EA00031811596CD91DC91CE01855991094091D2
:103EB000C704442309F4C2C00091CA0445E950E094
:103EC000509383064093820640E355E7509385065E
:103ED0004093840630938906209388068C39944752
:103EE00010F0C5E9D0E09091C90620918C06809130
:103EF000C60630918D0630FB87F98F7920FB84F957
:103F0000807F81608093C6069093C70680E480938B
:103F1000810680919606807C81608093960610923F
:103F2000990611E010939A060E947C198091C806A8
:103F30000E948E180093CA0682E080938A06D0936E
:103F40008706C0938606CE010E94A9178091960627
:103F5000837C8093960690918106903409F466C024
:103F60001093990680918606909187060E94A91762
:103F70008091C50680618093C5060E94CE1870E0CE
:103F800060E082E093E30E945B18E091270380E108
:103F9000E89FF0011124E95FFE4FE085E093010105
:103FA0008E2FEE0F990BFC01EE0FFF1FE80FF91F8C
:103FB000E557FC4F90819F708091C406807F892BCC
:103FC0008093C4060E94CE188091C8049091C904C1
:103FD0000E949A1865E970E080E094E30E945B1803
:103FE00060E375E781E094E30E945B18E0912703AA
:103FF00090E1E99FF0011124E95FFE4FE781F0E0D5
:10400000EE0FFF1FE75AFC4F608171816B30710525
:1040100014F06AE070E082E094E3E1CE8D7F80935B
:1040200096061092990610929A0623CF8D7F809360
:1040300096061092990610939A0694CF45E950E09F
:10404000509383064093820640E355E750938506DC
:104050004093840630938906209388068C399447D0
:1040600010F0C5E9D0E080918A068130D1F10E943C
:1040700005199091C90620918C068091C606309151
:104080008D0630FB87F98F7920FB84F9807F816072
:104090008093C6069093C70680E480938106809142
:1040A0009606807C8160809396061092990681E046
:1040B00080939A060E947C1980918B0694EF980F4A
:1040C0009F3458F424E531E0829FB001839F700D46
:1040D000112483E091E30E945B188091C8060E943E
:1040E0008E181092CA0681E080938A06D0938706C4
:1040F000C0938606CE010E94A9176091AB048091FF
:10410000AC040E942F1862E370E082E093E30E9407
:104110005B1869E170E083E093E30E945B18E09133
:10412000270380E1E89FF0011124E95FFE4FE0855D
:10413000E093000180918106803409F04BCF8E2FEF
:10414000EE0F990BFC01EE0FFF1FE80FF91FEA5865
:10415000FC4F8081873008F03DCF0E9405183ACF90
:104160008091CA049FEF980F9230B0F48091C704F9
:10417000811102C00E942F1AE091270380E1E89F7D
:10418000F0011124E95FFE4F858596859093C9045F
:104190008093C8040C949A18882319F083E08093C4
:1041A000CA041092C7040C94A91D0F931F93CF93B8
:1041B000DF93EC010E9434148C0160ED73E0CE01BA
:1041C0000E94411B800F911FDF91CF911F910F9192
:1041D00008951F920F920FB60F9211242F933F93C1
:1041E0008F939F93AF93BF938091D4049091D50404
:1041F000A091D604B091D7043091D30426E0230FC8
:104200002D3768F129E8230F0396A11DB11D2093D6
:10421000D3048093D4049093D504A093D604B09390
:10422000D7048091D8049091D904A091DA04B09178
:10423000DB040196A11DB11D8093D8049093D9048D
:10424000A093DA04B093DB04BF91AF919F918F915B
:104250003F912F910F900FBE0F901F9018950296CF
:10426000A11DB11DD4CF1F920F920FB60F92112432
:104270002F933F934F935F936F937F938F939F936E
:10428000AF93BF93EF93FF9384E395E00E941712DF
:10429000FF91EF91BF91AF919F918F917F916F911E
:1042A0005F914F913F912F910F900FBE0F901F90F4
:1042B00018951F920F920FB60F9211242F938F9380
:1042C0009F93EF93FF93E0914405F0914505808122
:1042D000E0914A05F0914B0582FD1BC090818091D1
:1042E0004D058F5F8F7320914E05821741F0E0914D
:1042F0004D05F0E0EC5CFA4F958F80934D05FF91F2
:10430000EF919F918F912F910F900FBE0F901F9063
:1043100018958081F4CF1F920F920FB60F9211243F
:104320002F933F934F935F936F937F938F939F93BD
:10433000AF93BF93EF93FF938091B900887F80364E
:1043400009F44AC0F0F5883209F4A7C018F58031A5
:1043500009F49BC0B8F4882309F405C1883009F436
:1043600094C0FF91EF91BF91AF919F918F917F91F9
:104370006F915F914F913F912F910F900FBE0F90D2
:104380001F901895883109F488C0803251F78093C6
:104390000D0514C0803409F4A5C040F48033B9F38E
:1043A0008833F9F680930D0585ECBCC0803509F49F
:1043B00089C0883509F49EC0883499F60E94321667
:1043C000D0CF883909F494C038F5883729F050F4F3
:1043D000883611F0803729F683E080930F0510921C
:1043E0009E0457C0883809F483C0803919F080389A
:1043F00009F0B7CF80919E04803208F079C0E09137
:104400009E0481E08E0F80939E048091BB00F0E0BB
:10441000E258FB4F80833DC0803B39F0E0F4803AA6
:1044200009F485C0883A09F09CCF84E080930F0599
:1044300010927D0410927C04E0910305F091040534
:10444000099580917C0481110FC081E080937C04E8
:1044500010925C0409C0803C09F4A6CF883C09F4A2
:10446000A3CF883B09F07DCFE0917D0481E08E0FE2
:1044700080937D04F0E0E45AFB4F80818093BB0081
:1044800090917D0480917C0431C0809108058093D7
:10449000BB0085EC8093BC0064CF90910A058091AD
:1044A00009059817B8F580910B0590910C05E091DE
:1044B0000A0521E02E0F20930A05E80FF92FF11DC0
:1044C0008081E5CF20910B0530910C05E0910A0524
:1044D00081E08E0F80930A058091BB00E20FF32FDD
:1044E000F11D808390910A0580910905981788F243
:1044F00085E8D0CF20910B0530910C05E0910A059D
:1045000081E08E0F80930A058091BB00E20FF32FAC
:10451000F11D808380910E05811150CF81E0809341
:10452000070584EA8093BC0010920F051ACF85EC32
:104530008093BC0010920F0580919E04803230F46D
:10454000E0919E04F0E0E258FB4F108260919E04DF
:1045500070E0E0910105F09102058EE794E0099585
:1045600010929E04FECE10920D0528CFCF93DF93BC
:10457000EB010E94742C8883CE01DF91CF910895C6
:10458000E4E3F5E01382128288EE93E0A0E0B0E06D
:1045900084839583A683B78321EA33E03183208324
:1045A00025EC30E03587248724EC30E037872687F8
:1045B00020EC30E0318B208B21EC30E0338B228BF0
:1045C00022EC30E0358B248B26EC30E0378B268BC9
:1045D000118E128E138E148EE1EDF5E0138212828D
:1045E00084839583A683B78383EB93E09183808351
:1045F000E4EDF6E0138212828DE197E19093E405F9
:104600008093E30588E197E19093E2058093E105CB
:1046100089EE96E19093E0058093DF0586ED91E1C8
:104620009093DE058093DD0585EC93E09183808394
:104630000E9421146093D0067093D1068093D20615
:104640009093D3060E9421146093CC067093CD06FC
:104650008093CE069093CF060E9421141092730689
:104660001092740681E190E090937606809375062F
:104670008EE190E090937806809377068AE090E050
:1046800090937A068093790680E49FE1A0E0B0E001
:1046900080937B0690937C06A0937D06B0937E0664
:1046A0008FEF80938A0694E290938B0691E090932B
:1046B0008C0610928D0610928E0620E030E8309322
:1046C000900620938F0621E030E0309392062093ED
:1046D00091061092930690E29093C80695E090930D
:1046E000C9068093CB061092CA060E9421146093DB
:1046F000E5057093E6058093E7059093E805089536
:10470000CF93DF9300D0CDB7DEB7789484B58360C4
:1047100084BD85B5836085BD80916E008160809386
:104720006E0012E01093810080918100816080937F
:104730008100809180008160809380008091B10031
:1047400084608093B1008091B00081608093B0005C
:1047500086E880937A001092C10062E08EE00E94A9
:104760006C1362E084E00E946C1362E088E00E94B7
:104770006C131093E0041092DF0480E880932A0306
:1047800088E080932B03E091E305F091E40509951F
:104790000E94C41404E012E2F801F4908F2D0E94EC
:1047A0008A14811107C00E9485140E94C4148F2DA1
:1047B0000E948A140F5F1F4FF2E20C301F0761F74F
:1047C0000E9485140E94F3140E94C4148FEA0E9470
:1047D0008A140E9485148EE493E09093A104809340
:1047E000A00410929F0488E096E19093A80480931F
:1047F000A7041092AA041092A90488E295E190936C
:10480000A4048093A3041092A6041092A50410920D
:10481000A2040E94C41481E80E948A148FEF0E94AF
:104820008A140E94851460EF71E284ED96E00E9484
:10483000D5206FED71E284ED96E00E94D5206DECFD
:1048400071E284ED96E00E94D5206AEB71E284ED7E
:1048500096E00E94341464EF71E080E090E00E94E2
:10486000CA138EE00E94E3128C01892BE9F40E94A6
:10487000F3146DEA71E284ED96E00E94341461E075
:1048800080E00E94C9146FEFC8010E947C2CB8011F
:1048900084ED96E00E949C1B0F5F1F4F011524E0E2
:1048A000120769F70E94F3148CE0809380060E943F
:1048B000FD136AEF70E080E090E00E94CA130E944E
:1048C0003A1381E10E9474110E947E118111EAC0A5
:1048D00081E190E090937606809375060E943A13EA
:1048E0008CE08093800610928D0610928E0685E0F3
:1048F0008093C90691E19093C6068093C70691E024
:1049000090938C0680E48093810680919606807C4B
:104910008160809396061092990690939A068091F2
:10492000CB0687FD07C061E00E940C138CE291E08A
:104930000E949D130E94FD130E947C198EE10E942B
:104940008E180E949617809175060E94741180E15E
:1049500090E00E94F4160E947E1164EBE62E66E061
:10496000F62E0E94961769E070E08091750690918E
:1049700076060E9453170BEA16E081ED95E00E943F
:104980007316F80181938F01EE16FF06B1F780913F
:10499000AB0686FDE6CF6AEF70E080E090E00E9413
:1049A000CA136CE271E080E090E00E94CA1390E0CC
:1049B00080E00E94742C8C3221F557E0E52E51E006
:1049C000F52E0AE010E0C8010E94742CF7018193D3
:1049D0007F010F5F1F4F0A32F2E01F07A1F767E266
:1049E00073E082E090E00E94B62262E071E084E031
:1049F00090E00E94B62261ED74E083E090E00E94B6
:104A0000B622E091270320E1E29FF0011124E95F43
:104A1000FE4F87858093CA040E94B0200E94A91D82
:104A20000E94231A9093CC048093CB049093CE04DD
:104A30008093CD048AE580938B0668E877E783E06E
:104A400091E30E945B1862E370E080E090E00E94D6
:104A5000CA13809102010E948E1862E370E080E028
:104A600090E00E94CA1322242A94322C36E0A32E0E
:104A7000B12C4BE4842E46E0942E8091D204811117
:104A800081C08EE00E94E312892B59F58EE00E94CE
:104A9000E312892BD1F461E070E080E090E00E94A5
:104AA000CA13F4CF83E60E9474110E947E118823FA
:104AB00049F00E94F3146AE971E284ED96E00E94E5
:104AC0003414FFCF83E690E005CF81E08093290383
:104AD0008091D1048F5F8C30B0F48093D1040E9418
:104AE000E31B84E00E94E312892B09F035C084E0C7
:104AF0000E94E312892B51F461E070E080E090E0C5
:104B00000E94CA13F4CF1092D104E9CF81E090E063
:104B10009093D0048093CF048091CF049091D004DF
:104B2000892B09F435C181E080932903E091D104F8
:104B3000EC3008F00AC1F0E0E056FA4D0C94282E53
:104B40004E26E5252B27322957271728F227B62787
:104B50007D29382891299E2A88E00E94E312892B1A
:104B6000D9F688E00E94E312892B39F461E070E005
:104B700080E090E00E94CA13F4CF3092D0042092DB
:104B8000CF04CACF84E00E94E3128C0188E00E9427
:104B9000E312800F911F892B09F0BECF84E00E94A1
:104BA000E3128C0188E00E94E312800F911F892B91
:104BB00039F461E070E080E090E00E94CA13EECF2B
:104BC0001092D2040E94E31BA7CF8091CF04909152
:104BD000D0040197E9F420918606309187068091F0
:104BE0008406909185062817390708F449C08091FA
:104BF0008206909183069093870680938606809123
:104C00008606909187060E94A91781E08093280369
:104C10008091CF049091D0040196D9F480918606BA
:104C200090918706209182063091830628173907D4
:104C300070F1809184069091850690938706809309
:104C4000860680918606909187060E94A917109289
:104C500028030E94231A9093CE048093CD040097DA
:104C600051F0E091270320E1E29FF0011124E95F78
:104C7000FE4F968385831092CC041092CB0465C0BE
:104C80008091880690918906820F931FB4CF20915E
:104C9000880630918906821B930BCFCF2091CF04D9
:104CA0003091D0048091040190910501820F911DF3
:104CB00027FD9A95873091050CF4BCC01092050130
:104CC000109204018091040190910501FC01EE0F06
:104CD000FF1FE75AFC4F9081218190938806209313
:104CE0008906E091270330E1E39FF0011124E95F99
:104CF000FE4F87838091CA048150833008F0A6C09C
:104D0000692F722F6B30710514F06AE070E082E059
:104D100094E30E945B186CE072E284E395E00E94E9
:104D20003414E0910401F0910501EE0FFF1FE75AE2
:104D3000FC4F6081718184E395E00E949C1B60EDD3
:104D400073E084E395E00E94411B8091CF04909131
:104D5000D004892B19F081E0809329031092D004AC
:104D60001092CF040E9409170E9421146093CC0670
:104D70007093CD068093CE069093CF061092C30415
:104D80001092C4041092C5041092C6040E9421140B
:104D90000E9421140091CC061091CD062091CE06E0
:104DA0003091CF06601B710B820B930B6D3B7443EC
:104DB0008105910508F4F6C38091810678E0E72E1D
:104DC000F12C13E2803251F0E8E0EE2EF12C13E5E5
:104DD000803521F066E0E62EF12C13E40E94961750
:104DE000809175060E947411612F81ED95E00E94FB
:104DF000BA1660E081ED95E00E94BA160E947E111D
:104E00000E949617B70180917506909176060E94D0
:104E10005317612C062D10E00E151F050CF094C3DE
:104E200081ED95E00E947316F801E556F94F8083F5
:104E30006394F0CF97FD05C0909305018093040122
:104E400041CFB0920501A09204013CCF6AE070E02E
:104E500082E094E15ECF2091CF043091D004809124
:104E6000C806213001F58F3318F48F5F8093C80690
:104E70008091C8060E948E186AE070E080E090E0A1
:104E80000E94CA138091C8068093020162E172E217
:104E900084E395E00E9434146091C80684E395E0B1
:104EA0000E94D21B4CCF882319F38150DFCF809111
:104EB000CF049091D0040197F9F480912703409199
:104EC000CD045091CE0490E1899F900111244115A9
:104ED000510529F0F901E95FFE4F56834583295FAB
:104EE0003E4F90910401F90197838132C0F58F5FA5
:104EF000809327030E94A91D8091CF049091D00434
:104F00000196F9F4809127034091CD045091CE048D
:104F100090E1899F900111244115510529F0F90173
:104F2000E95FFE4F56834583295F3E4F9091040110
:104F3000F90197838823B1F08150809327030E9461
:104F4000A91DE091270320E1E29FF0011124E95F10
:104F5000FE4F87858093CA040E94B020F6CE10923F
:104F60002703C8CFF1E2F0932703E9CF2091CF04C4
:104F70003091D0048091AD04213009F58F5F87FF17
:104F800020C085E28093AD041091AD0481E011163C
:104F90000CF080E08093AC041230C4F09FEF910FCE
:104FA0009093AB046091AB040E942F18111111C0B3
:104FB0006AE172E284E395E00E94D520C6CE81507A
:104FC000DECF8632FCF21092AD04DECF1092AB043D
:104FD000E9CF6EE172E284E395E00E9434146091BF
:104FE000AB045CCF2091CF043091D0040091C80471
:104FF0001091C9048091060190E021303105A1F49F
:10500000080F191F1093C9040093C804C8010E9417
:105010009A18E091270330E1E39FF0011124E95F42
:10502000FE4F1687058727CE081B190BEBCF809103
:105030000601813021F485E08093060186CE85301B
:1050400011F48AE0F9CF8A3011F489E1F5CF893182
:1050500011F482E3F1CF823311F484E6EDCF84368C
:1050600011F48AEFE9CF8A3F09F06FCE81E0E4CFF7
:105070008091CF049091D004982F8091CA042FEF93
:10508000280FA0912703223008F074C080910101FD
:10509000913009F064C08F5F86300CF462C01092CA
:1050A0000101E091010180E1A89FD0011124A95FD5
:1050B000BE4F1896EC938E2FEE0F990BFC01EE0F5E
:1050C000FF1FE80FF91FE557FC4F1081912F9F70CC
:1050D0008091C406807F892B8093C4060E94CE18DD
:1050E0008091C4068F70112321F01450123008F003
:1050F0003FC08093C4060E94CE18E09101018E2F1C
:10510000EE0F990BFC01EE0FFF1FE80FF91FE5579B
:10511000FC4F0181128164E272E284E395E00E9417
:1051200034146091C8047091C90484E395E00E942E
:105130009C1B61E272E284E395E00E94D5206AE262
:1051400072E284E395E00E9434140115110509F41C
:10515000F6CDB80184E395E00E94411BF0CD81506B
:105160009BCF87FD03C0809301019BCF85E0FBCFE0
:105170008061BFCF8330E1F580910001913079F5F6
:105180008F5F873074F110920001E091000190E18F
:10519000A99FD0011124A95FBE4F1896EC9380916E
:1051A0008106803479F48E2FEE0F990BFC01EE0FFF
:1051B000FF1FE80FF91FEA58FC4F8081873010F479
:1051C0000E940518E09100018E2FEE0F990BFC0153
:1051D000EE0FFF1FE80FF91FEA58FC4F37C0815050
:1051E000D0CF87FD03C080930001CFCF86E0FBCFF7
:1051F0008091AE04913069F58F5F853064F1109233
:10520000AE048091AE0420E1A29FF0011124E95F79
:10521000FE4F8087082E000C990BFC01EE0FFF1F3C
:10522000E80FF91FE959FC4F608170E082E091E1DD
:105230000E945B18E091AE048E2FEE0F990BFC01DB
:10524000EE0FFF1FE80FF91FE959FC4F0181128192
:1052500076CF8150D2CF87FD03C08093AE04D1CFEB
:1052600084E0FBCF8091CA04833099F50E942F1A05
:1052700081E08093CA04E091270330E1E39FF001CD
:105280001124E95FFE4F858596859093C90480932C
:10529000C8040E949A188091CD049091CE04E091A8
:1052A000270320E1E29FF0011124009739F0DF018C
:1052B000A95FBE4F16969C938E931597E95FFE4F9C
:1052C0008091040187838091CA0487870E94A91D69
:1052D0003CCD813051F4E091270382E08093CA04F1
:1052E00080E1E89FF0011124CCCF8230A1F683E069
:1052F0008093CA041092C704CECF8091030191E03D
:105300008927809303019091C704992309F41DCD47
:105310009091C50680FB94F99093C5060E94CE1823
:1053200014CD8091CA04882319F0833009F00DCD83
:105330008091CF049091D004019709F0D7C081E00B
:1053400080932803009128032091860630918706D8
:10535000002309F4D5C08091840690918506281712
:10536000390708F4C6C08091820690918306909315
:1053700087068093860680918606909187060E9414
:10538000A9170E9421142B013C0180918A068230CA
:1053900009F47FC08091810611E2803209F011E4A6
:1053A0000E94961700FBC3F83C2D3870C32E8091E5
:1053B00075060E947411612F81ED95E00E94BA1666
:1053C0006C2D81ED95E00E94BA161134E9F411E0DC
:1053D00080918606909187068930974008F410E006
:1053E00060E081ED95E00E94BA1660E081ED95E005
:1053F0000E94BA1660E081ED95E00E94BA16612F16
:1054000081ED95E00E94BA160E947E1168E770E077
:1054100080E090E00E94CA13609177067091780650
:1054200090E080E00E94CA1380E00E94D41960914D
:1054300077067091780690E080E00E94CA13809110
:10544000A5069091A6069093860680938706909372
:10545000CD048093CE040E94461C0E94F91681114F
:1054600018C08091A4068178A1F40E9421146419C7
:1054700075098609970920917B0630917C06409139
:105480007D0650917E06621773078407950708F41E
:1054900081CF6EE170E080E090E00E94CA138091BD
:1054A000CA04811144C00E94231ABC0190E080E02C
:1054B0000E942B2D20E030E040E251E40E948A2C33
:1054C0000E94B92D0E94FC2C2AE0269FA001279F54
:1054D000500D11245093CE044093CD04CA010E9474
:1054E00024198091CD049091CE04B9CB1092280359
:1054F00029CF8091880690918906820F931F37CF1C
:1055000080918206909183068217930728F08091FC
:105510008406909185062BCF80918806909189060C
:10552000281B390B309387062093860624CF0E94D0
:10553000231A9093CE048093CD04D3CF81E080933F
:10554000D2040E94E31B01CC80919F069091C2047B
:10555000891729F08093C20481E080932903809108
:10556000C3049091C404A091C504B091C6048430D2
:105570009105A105B1050CF0A7C00196A11DB11DB3
:105580008093C3049093C404A093C504B093C6044D
:105590000E9421146093CC067093CD068093CE06B2
:1055A0009093CF068091CA04811111C02091CD043F
:1055B0003091CE048091CB049091CC042817390708
:1055C00009F48BC0E091C004F091C1041082809175
:1055D0002903882321F0109229030E94C91C0091FD
:1055E000CD041091CE048091CB049091CC04081787
:1055F000190709F452C10115110509F44EC1E091D2
:10560000270320E1E29FF0011124E95FFE4F16839A
:1056100005838091D204811144C081E08093D2043B
:105620001A8219826CE2CE0101960E94261B6091BB
:10563000270382E090E09A838983CE0101960E943D
:10564000261B6091020184E090E09A838983CE0159
:1056500001960E94261B6091D10483E090E09A831A
:105660008983CE0101960E94261B47E0E42E41E08B
:10567000F42E0AE010E0F70161907F01C8010E945A
:10568000742C681621F0662DC8010E947C2C0F5FD7
:105690001F4F0A32F2E01F0771F70E94091710929C
:1056A000D2040E9421146093D0067093D106809397
:1056B000D2069093D3068091CD049091CE0490931E
:1056C000CC048093CB04FDC01092C3041092C40498
:1056D0001092C5041092C6045BCF8091810680327F
:1056E00009F064C080918606909187062091AF04EE
:1056F0003091B0048217930719F19093B00480930E
:10570000AF04E9EEF5E080E281932AE236E02E175D
:105710003F07D1F710922906F90180E281932BE42B
:1057200036E02E173F07D1F710924A06F90180E2C2
:10573000819324E536E02E173F07D1F710925306E8
:105740000E949617E894D0F8E894D1F8E894D2F83B
:10575000809175060E94741184E290E00E94F41614
:105760006D2D81ED95E00E94BA160E947E110E9477
:1057700096176DE070E080917506909176060E9414
:10578000531704EB16E081ED95E00E947316F801C3
:1057900081938F01F6E0013C1F07A9F78091B406C1
:1057A00086FDE5CF86E292E00E949D138091B506CA
:1057B00080FF0DCF9091B60690FF09CF82FF07CFF3
:1057C00081FD05CF92FD03CF8091BA0682958F703F
:1057D00029F01092C1041092C004F9CE8091BB064A
:1057E000837090E09093720680937106880F991FE2
:1057F0009C01255B394F4091BF065091BE065D303C
:10580000B9F15A30A9F190E080E0503224F0F9016A
:10581000508381E090E04D3069F14A3059F14032D7
:1058200024F0820F931FFC01408310925306909244
:10583000C1048092C0040E9421140091E5051091DA
:10584000E6052091E7053091E805601B710B820B9E
:10585000930B6B3071058105910508F4B8CEABE46C
:10586000B6E0E1EBF4E08D91882361F08193FBCF0A
:1058700090E080E041E040937406820F931FFC01AA
:105880001082D3CF0E9421146093E5057093E60542
:105890008093E7059093E8059ACE0E942114209109
:1058A000D0063091D1064091D2065091D306621BAA
:1058B000730B840B950B613177428105910508F0DC
:1058C0009ECE61E070E080E090E00E94CA1380E02C
:1058D00090E0892B09F4D1C80E94A612882309F40C
:1058E000CCC80E940000C9C8F999FECF92BD81BD05
:1058F000F89A992780B50895262FF999FECF1FBAF7
:1059000092BD81BD20BD0FB6F894FA9AF99A0FBEE8
:10591000019608950E949E2C0C947F2D0E94782D54
:1059200058F00E94712D40F029F45F3F29F00C944B
:10593000682D51110C94B32D0C946E2D0E94902D56
:1059400068F39923B1F3552391F3951B550BBB27AE
:10595000AA2762177307840738F09F5F5F4F220FF3
:10596000331F441FAA1FA9F335D00E2E3AF0E0E8EA
:1059700032D091505040E695001CCAF72BD0FE2F34
:1059800029D0660F771F881FBB1F261737074807C8
:10599000AB07B0E809F0BB0B802DBF01FF27935880
:1059A0005F4F3AF09E3F510578F00C94682D0C94AF
:1059B000B32D5F3FE4F3983ED4F3869577956795D2
:1059C000B795F7959F5FC9F7880F911D96958795B5
:1059D00097F90895E1E0660F771F881FBB1F6217D4
:1059E00073078407BA0720F0621B730B840BBA0B92
:1059F000EE1F88F7E09508950E94982D88F09F5734
:105A000098F0B92F9927B751B0F0E1F0660F771FE2
:105A1000881F991F1AF0BA95C9F714C0B13091F0D8
:105A20000E94B22DB1E008950C94B22D672F782F0B
:105A30008827B85F39F0B93FCCF38695779567959D
:105A4000B395D9F73EF490958095709561957F4F09
:105A50008F4F9F4F0895E89409C097FB3EF49095AF
:105A60008095709561957F4F8F4F9F4F9923A9F037
:105A7000F92F96E9BB279395F695879577956795C6
:105A8000B795F111F8CFFAF4BB0F11F460FF1BC00A
:105A90006F5F7F4F8F4F9F4F16C0882311F096E99D
:105AA00011C0772321F09EE8872F762F05C066234B
:105AB00071F096E8862F70E060E02AF09A95660F04
:105AC000771F881FDAF7880F9695879597F90895BD
:105AD00097F99F6780E870E060E008959FEF80ECA1
